:020000040800F2
:10000000900700200D4A00088502000887020008BA
:100010008B0200088F020008930200080000000015
:10002000000000000000000000000000970200082F
:1000300099020008000000009B0200089D020008D1
:10004000274A0008274A0008274A0008274A0008CC
:10005000274A0008274A0008274A0008274A0008BC
:10006000274A0008274A0008274A0008274A0008AC
:10007000274A0008274A0008274A0008274A00089C
:10008000274A0008274A0008274A0008274A00088C
:10009000274A0008274A0008274A0008274A00087C
:1000A000274A0008274A0008274A0008274A00086C
:1000B000ED060008274A0008274A0008274A0008DA
:1000C000274A0008274A0008274A0008274A00084C
:1000D000274A000881490008274A0008274A0008E3
:1000E000274A0008274A0008274A0008274A00082C
:1000F000274A0008274A0008274A0008274A00081C
:10010000274A0008274A0008274A0008274A00080B
:10011000274A0008274A0008274A0008274A0008FB
:10012000274A0008274A0008274A0008274A0008EB
:1001300000F002F800F045F80AA090E8000C8244B4
:100140008344AAF10107DA4501D100F03AF8AFF291
:10015000090EBAE80F0013F0010F18BFFB1A43F0A5
:10016000010318471484000034840000103A24BFAF
:1001700078C878C1FAD8520724BF30C830C144BF0C
:1001800004680C607047000000230024002500264E
:10019000103A28BF78C1FBD8520728BF30C148BFEA
:1001A0000B607047642906F09782782906F0D082A8
:1001B000732906F08683002070471FB51FBD10B558
:1001C00010BD06F099FB1146FFF7F7FF00F03DF870
:1001D00006F0B7FB03B4FFF7F2FF03BC04F076FBB5
:1001E00010B5002000F075F90446012C04D0022C53
:1001F0000ED0032C27D11AE01F480078401C1E495E
:10020000087008460078022801DD002008701AE016
:100210001A48008864301949088008460088B0F5FB
:10022000FA6F01DD0120088000F00BFA0BE01448A2
:1002300000780A301249087008460078642801DD09
:100240000A20087000BF00BF10BD04F0D5FA4FF4BB
:10025000165004F049FB00F013F94721632000F029
:1002600017FA04F099FA01F02DFC03E0FFF7B8FF4C
:1002700000F000FEFAE70000160000201800002041
:100280001A000020704700BFFEE700BFFEE700BF76
:10029000FEE700BFFEE770477047704770470000F9
:1002A0000CB50020019000906C48006840F480304C
:1002B0006A49086000BF6948006800F40030009097
:1002C0000198401C0190009818B90198B0F5A06FF2
:1002D000F1D16248006800F4003010B101200090B4
:1002E00001E0002000900098012843D15C4800689C
:1002F00040F010005A4908600846006820F00300EA
:1003000008600846006840F00200086053484068F2
:10031000524948600846406848600846406840F4D2
:10032000806048600846406820F47C1048600846B9
:10033000406840F4E81048600846006840F080706B
:10034000086000BF4548006800F000700028F9D040
:100350004248406820F00300404948600846406831
:1003600040F00200486000BF3C48406800F00C00CC
:100370000828F9D10CBD10B5FFF792FF10BD10B5DC
:100380003648006840F0010034490860084640687B
:1003900034490840314948600846006832490840FD
:1003A0002E4908600846006820F48020086008464E
:1003B000406820F4FE0048604FF41F008860FFF79B
:1003C000DAFF4FF000602949086010BD10B5002128
:1003D00000200022214B5B6803F00C0121B10429AD
:1003E00006D0082928D107E0214B224C236027E0C2
:1003F0001F4B204C236023E0184B5B6803F4701004
:10040000164B5B6803F48032022303EB904022B961
:10041000194B4343174C23600DE0104B5B6803F40A
:10042000003323B1144B4343124C236003E0104BC1
:100430004343104C236003E00D4B0E4C236000BF80
:1004400000BF064B5B68C3F303130C4CE15C094B24
:100450001B68CB40074C236010BD00000010024019
:10046000002002400000FFF8FFFFF6FE08ED00E06C
:1004700000127A000000002000093D000400002066
:1004800008B50121142004F0FDFD0121374804F0D6
:100490000EFC4FF40040ADF8000048208DF803003A
:1004A0006946334804F032FB2020ADF800004820B4
:1004B0008DF8030069462F4804F028FB0120ADF8B1
:1004C000000028208DF803006946294804F01EFB2F
:1004D00008BD10B5044614B101202749087026480C
:1004E000007868B32021234804F0A3FB58B14FF4EF
:1004F00000411F4804F09DFB28B101211C4804F075
:1005000098FB01281CD10A2004F0B3F900201A49F5
:1005100008702021174804F08CFB08B9012010BD99
:100520004FF40041124804F084FB08B90220F6E7BA
:1005300001210F4804F07DFB012815D10320EEE7CF
:1005400020210C4804F075FB01280DD1C103084897
:1005500004F06FFB012807D10121054804F069FB75
:1005600010B90120044908700020D8E700023000CB
:1005700000080140001001401400002070B54FF445
:1005800000653D480078C0EBC0206421B0FBF1F06D
:1005900084B23A48007880B939483A49098830F835
:1005A0001100A0F50060344909784843642190FBAC
:1005B000F1F000F5006085B22FE0304800780128A6
:1005C0000BD130480088672803D204F5006085B25B
:1005D00023E0C4F5006085B21FE0284800780228B7
:1005E0001BD12848008880280BDA6000254909883B
:1005F00048436721B0FBF1F0C4F50061084485B2BF
:100600000BE060001F490988673948436721B0FB48
:10061000F1F104F50060401A85B2B5F5805F01DBA9
:1006200040F6FF75284604F0D9F816480088401CAB
:100630001449088008460088CE2801D3002008808D
:1006400070BD47214A1C104B93FBF2F00F4A1288F1
:10065000CE235A43B0FBF2F000B1401EB0F5803F0C
:1006600001D34FF6FF704FF08042118513469885F5
:1006700000229A84704700001A0000201600002013
:10068000D86B00081C00002000A24A0418000020BB
:100690007FB505460C460121084604F000FDADF883
:1006A0000850ADF804400020ADF80A00ADF806008F
:1006B00001A94FF0804005F08FF801221146900704
:1006C00005F001FC1C208DF8000000208DF80100D1
:1006D00003208DF8020001208DF80300684604F025
:1006E0003EFF0121880705F0D3FB7FBD10B5012136
:1006F000880705F096FE28B1FFF740FF0121880723
:1007000005F0A0FE10BD00004FF48071FE4A51615B
:1007100049005161FD4908608021516111618900E2
:100720001161704730B503460C461546F84880887D
:1007300045F21051884250D1F5494889FFF7E4FF4E
:100740004FF48070F0490861400048611812EF4989
:1007500008608020EC494861086180000861EC492C
:100760004989491C88B2FFF7CFFF4FF48070E649F2
:10077000086140004861D8B2E44908608020E2493D
:100780004861086180000861E1498889FFF7BCFF82
:100790004FF48070DC490861400048612012DB4959
:1007A00008608020D8494861086180000861D84904
:1007B0008989491C88B2FFF7A7FF4FF48070D2499E
:1007C000086140004861E0B2D04908608020CE490D
:1007D0004861086180000861C3E0CD48808841F627
:1007E000631188427DD1CA48807920B9C848008801
:1007F000401EC01A83B2C6494889FFF785FF4FF4EF
:100800008070C1490861400048611812BF49086002
:100810008020BD494861086180000861401008617E
:1008200040004861D8B2B94908608020B6494861A3
:10083000086180000861401008614000486118129A
:10084000B24908608020B0494861086180000861B1
:100850004010086140004861D8B2AC49086080206F
:10086000A9494861086180000861A9498889FFF7A2
:100870004BFF4FF48070A44908614000486120128A
:10088000A24908608020A049486108618000086191
:100890004010086140004861E0B29C490860802037
:1008A0009949486108618000086140100861400072
:1008B0004861201295490860802093494861086189
:1008C000800008614010086140004861E0B28F4933
:1008D000086080208C49486108618000086140E020
:1008E000FFE78B494889FFF70FFF4FF48070864977
:1008F00008614000486118128449086080208249DC
:10090000486108618000086140100861400048614A
:10091000D8B27E49086080207B4948610861800028
:1009200008617B498889FFF7EFFE4FF480707649B4
:1009300008614000486120127449086080207249B3
:10094000486108618000086140100861400048610A
:10095000E0B26E49086080206B4948610861800000
:1009600008614FF4807068494861400048616848F8
:1009700000896649086080206349486108618000F9
:1009800008614010086140004861604805608020AF
:10099000486108618000086130BD2DE9F84F80464C
:1009A0000E4617461C46B3462046E31704EB537326
:1009B000DB1021464FEAE47C04EB5C7C4FEAEC0C54
:1009C000A4EBCC0CBCF1000F02D04FF0010C01E005
:1009D0004FF0000C6344224604EBD27C4FEA6C0CCF
:1009E00003FB0CF3DBB20093A7F12000C7B2002594
:1009F00056E00C2C07D107EB4700464901EB80007D
:100A000010F8059013E0102C05D1434800EB0710B7
:100A100010F805900BE0182C07D107EBC7003F49F1
:100A200001EB800010F8059001E0BDE8F88F4FF071
:100A3000000A2FE009F0800030B1394802883146C1
:100A40004046FFF76FFE07E00A9828B9354802884C
:100A500031464046FFF766FE4FEA49604FEA1069AB
:100A6000701C86B22A484088B04200DCDDE7A6EB65
:100A70000B00A0420AD15E4608F101001FFA80F87F
:100A800023480088404500DCCFE706E00AF101007A
:100A900000F0FF0ABAF1080FCCDB00BF681CC5B23A
:100AA00000988542A5DB00BFBFE72DE9F847044663
:100AB0000D4690469946DDE9096704F0FF0A08EB08
:100AC00004001FFA80F809EB05001FFA80F916E010
:100AD000444502DB5446A81985B24D4500DB25E0AC
:100AE000002000903A78334629462046FFF755FF0C
:100AF000304606EBD07104EB61018CB27F1C387874
:100B00007E2813DC38780FE0001001400C0C014007
:100B100058000020746D0008E8710008D8770008BC
:100B200020000020220000202028D1DA00BFBDE8EC
:100B3000F88700B5FE490889FFF7E6FD00BD10B54E
:100B400003460C46FA48808841F6631188427DD1FD
:100B5000F748807900283FD1F5480088401EC01A28
:100B600083B2F3494889FFF7CFFD4FF48070F14914
:100B70000861400048610020EF4908608020ED498D
:100B800048610861800008614010086140004861C8
:100B90000020E94908608020E6494861086180003A
:100BA000086140100861400048611812E24908607D
:100BB0008020E049486108618000086140100861B8
:100BC00040004861D8B2DC4908608020D9494861BA
:100BD00008618000086141E0D5494889FFF794FD2C
:100BE0004FF48070D3490861400048611812D2491F
:100BF00008608020CF49486108618000086140108A
:100C0000086140004861D8B2CB4908608020C949DA
:100C10004861086180000861401008614000486137
:100C2000C3480088401E0012C34908608020C149A3
:100C30004861086180000861401008614000486117
:100C4000BB480078401EC0B2BB4900E047E00860E6
:100C50008020B8494861086180000861B4498889EA
:100C6000FFF752FD4FF48070B249086140004861BF
:100C70002012B14908608020AE49486108618000B7
:100C800008614010086140004861E0B2AA4908606C
:100C90008020A8494861086180000861401008610F
:100CA00040004861A2484088401E0012A2490860E6
:100CB0008020A049486108618000086140100861F7
:100CC000400048619A488078401EC0B29A49086046
:100CD00080209849486108618000086196E0944846
:100CE000808845F21051884250D191494889FFF7D8
:100CF0000BFD4FF480708F49086140004861181265
:100D00008D49086080208B49486108618000086136
:100D100087494989491C88B2FFF7F6FC4FF4807077
:100D20008449086140004861D8B283490860802046
:100D3000804948610861800008617D498889FFF722
:100D4000E3FC4FF480707B49086140004861201249
:100D5000794908608020774948610861800008610E
:100D600073498989491C88B2FFF7CEFC4FF4807023
:100D70007049086140004861E0B26F490860802016
:100D80006C4948610861800008613FE06849488912
:100D9000FFF7BAFC4FF48070664908614000486173
:100DA0001812654908608020624948610861800026
:100DB00008614010086140004861D8B25E4908608F
:100DC00080205C4948610861800008615849888931
:100DD000FFF79AFC4FF48070564908614000486163
:100DE00020125549086080205249486108618000FE
:100DF00008614010086140004861E0B24E49086057
:100E000080204C49486108618000086110BD2DE9CF
:100E1000F04F05460E4617469846DDF824A04FF0E1
:100E2000000B781B401C1FFA80FB34461EE0214655
:100E30002846FFF784FEFFF77CFE4FF0000911E023
:100E40004FF480703B490861400048613A48C0F85F
:100E500000A08020486108618000086109F101005C
:100E60001FFA80F9D945EBDB601C84B24445DEDD16
:100E7000BDE8F08F00B58BB0304800783049097874
:100E800088420BD12F4800882F490988884205D114
:100E90002E4800782E490978884247D027480078A4
:100EA0002749087027480088274908802748007884
:100EB000274908704FF6FF707823EF223221009007
:100EC0000020FFF7A4FF23481C49097850F821208F
:100ED00021A103A805F08EFB03A810210B46C82210
:100EE000CDE900103C210A20FFF7DFFD15480288FC
:100EF0001CA103A805F07EFB03A810210B46C82205
:100F0000CDE9001050210A20FFF7CFFD0F480278ED
:100F100017A103A805F06EFB03A810210B46C822F9
:100F2000CDE9001064210A20FFF7BFFD0BB000BD22
:100F300058000020001001400C0C01401600002059
:100F40003000002018000020320000201A0000208D
:100F50003400002024000020576176653A20257374
:100F600000000000467265713A20256420487A002E
:100F7000416D703A20256420252500004FF48071D2
:100F8000FE4A116149005161FD49086080215161AB
:100F9000116189001161704700BF011EA0F10102BB
:100FA000D0B2FAD1704700B54FF08830F4490C390F
:100FB0000860091D08600020F14908608815EF49A4
:100FC000086140004861402048610220FFF7E4FFCB
:100FD000EB48001F006883B24020E8490861C00068
:100FE00008614FF03330E6490C390860091D08608C
:100FF0004FF6FF70E2490860184600BD10B5044680
:101000000B462046FFF780FB4FF48070DB490861F8
:1010100040004861DA480360802048610861800030
:10102000086110BD10B504462046FFF76DFBFFF7C1
:10103000BAFF10BD4FF48071D04A1161490051616F
:10104000CF490860802151611161890011617047A9
:1010500030B5014601F01F04C1F34513CA0AE50289
:1010600005EB43151544A8B230BD2DE9F041054606
:101070000E46C4480088A84203DDC2484088B042FA
:1010800002DC0020BDE8F08131462846FFF757FD1D
:10109000BC48808845F21051884204D14FF4385042
:1010A000FFF732FB02E02E20FFF72EFBFFF77BFF5E
:1010B0000446B448808841F66311884201D1204635
:1010C000E0E7FFF770FF0446FFF76DFF8046E7B2E9
:1010D0004FF6FF7000EA0727E012C002B91240EA9B
:1010E000411040EAE820CDE700B5A648808845F2E7
:1010F0001051884204D14FF42450FFF705FB02E061
:101100002920FFF701FB00BD00B59E48808845F20D
:101110001051884204D14FF42050FFF7F5FA02E055
:101120002820FFF7F1FA00BDF0B50546002400279E
:1011300094488079012805D19248808841F663114E
:10114000884208D18F488079F0B98E48808841F66E
:101150006311884218D1082D15D2DFE805F0040686
:10116000080A0C0E101206250DE007250BE00425D9
:1011700009E0052507E0012505E0002503E003253A
:1011800001E0022500BF00BF082D1CD2DFE805F0FA
:101190000406090C0F12151800BF14E044F0800477
:1011A00011E044F040040EE044F0C0040BE044F0D1
:1011B000200408E044F0600405E044F0A00402E0EC
:1011C00044F0E00400BF00BF6E48808845F2105133
:1011D000884202D14FF4585700E03627694880888A
:1011E00049F24131884205D06648808847F28971CA
:1011F000884201D144F0080421463846FFF7FEFE3C
:101200006048808841F6631188421DD004F02000B8
:1012100068B15C4800885B494988884214DA5948BB
:101220000688408857490880084646800CE05548A3
:10123000008854494988884206DD5248068840881B
:1012400050490880084646804E48808845F2105133
:1012500088427DD14B494889FFF756FA4FF4807098
:1012600046490861400048610020454908608020E7
:101270004249486108618000086142494989491C26
:1012800088B2FFF741FA4FF480703C490861400092
:10129000486100203A490860802038494861086167
:1012A0008000086137494989891C88B2FFF72CFA08
:1012B0004FF480703149086140004861314800882E
:1012C000401E00122E49086080202C4948610861A8
:1012D000800008612B494989C91C88B2FFF714FABC
:1012E0004FF4807025490861400048612548007826
:1012F000401EC0B222490860802020494861086130
:10130000800008611F498889FFF7FEF94FF480705B
:101310001A4908614000486100201949086080208E
:101320001649486108618000086116498989491C8D
:1013300088B2FFF7E9F94FF4807010490861400066
:10134000486100200E49086080200C49486100E097
:101350003AE00861800008610A498989891C88B2DD
:10136000FFF7D2F94FF480700449086140004861EA
:1013700004484088401E0012014905E00010014069
:101380000C0C01405800002008608020FE49486194
:10139000086180000861FD498989C91C88B2FFF78E
:1013A000B3F94FF48070F849086140004861F7488C
:1013B0008078401EC0B2F64908608020F24948613A
:1013C0000861800008617FE0F0494889FFF79CF9D7
:1013D0004FF48070EC490861400048610020EC49FE
:1013E00008608020E8494861086180000861401079
:1013F0000861400048610020E54908608020E2491A
:10140000486108618000086140100861400048613F
:10141000DE480088401E0012DD4908608020DA495D
:10142000486108618000086140100861400048611F
:10143000D6480078401EC0B2D54908608020D24905
:101440004861086180000861D0498889FFF75CF92C
:101450004FF48070CC490861400048610020CC49BD
:1014600008608020C8494861086180000861401018
:101470000861400048610020C54908608020C249D9
:1014800048610861800008614010086140004861BF
:10149000BE484088401E0012BD4908608020BA49FD
:1014A000486108618000086140100861400048619F
:1014B000B6488078401EC0B2B54908608020B24965
:1014C0004861086180000861F0BD30B504460D46F2
:1014D00029462046FFF733FBFFF72BFB4FF48070C4
:1014E000A949086140004861AA480088A8490860E5
:1014F0008020A549486108618000086130BD2DE960
:10150000F0410446BE20FFF7FFF84FF480709E497B
:1015100008614000486105209D49086080209A4983
:10152000486108618000086140100861400048611E
:10153000204605F040FA05464FF06632964B05F01E
:101540004DFA074605F00AFA9149086080208E4955
:1015500048610861800008614010086140004861EE
:1015600001208B490860802087494861086180001C
:1015700008614010086140004861FF20844908600C
:10158000802081494861086180000861401008613D
:101590004000486100207E49086080207A49486107
:1015A0000861800008614010086140004861002027
:1015B00077490860802074494861086180000861AB
:1015C000BDE8F08110B5044670488471002C45D107
:1015D000F0206E4908804FF4A0704880084680884B
:1015E00045F21051884210D14FF4305067490881BC
:1015F0004FF4285048814FF42C5088814FF4F070FC
:1016000008804FF4487048801AE06048808841F6AE
:10161000631188420DD12C205C4908812B20488120
:101620002A2088814FF4F07008804FF44870488079
:1016300006E02C20554908812A2048812B208881EA
:101640005248808845F2103188424CD14FF4A07046
:101650004E4908804FF4F070488044E04FF4A07089
:101660004A490880F02048800846808845F2105199
:10167000884210D14FF43050444908814FF428502B
:1016800048814FF42C5088814FF4487008804FF403
:10169000F07048801AE03D48808841F66311884226
:1016A0000DD12C20394908812A2048812B2088819E
:1016B0004FF4487008804FF4F070488006E02C200A
:1016C000324908812A2048812B2088812F48808830
:1016D00045F21031884206D14FF4F0702B49088052
:1016E0004FF4A07048800020FFF71EFD10BD2DE9CB
:1016F000F04104460D461646A019401E87B2E81870
:10170000401E1FFA80F82148808841F66311884204
:101710007ED11E48807901287AD01C480088801B21
:10172000001B84B2E818401E83B218494889FEF7AE
:10173000EBFF4FF4807014490861400048612012AB
:1017400013490860802010494861086180000861E1
:101750004010086140004861E0B20D4908608020F7
:101760000949486108618000086140100861400033
:101770004861A019401E00120549086080200249F6
:1017800048610861800009E0001001405800002015
:101790000C0C0140200000206666044008614010E7
:1017A000086140004861A019401EC0B2FE490860AF
:1017B0008020FE494861086180000861FC498889F1
:1017C000FEF7A2FF4FF48070F849086140004861BD
:1017D0002812F54908608020F449486108618000BA
:1017E00008614010086140004861E8B2EE490860B5
:1017F0008020EE494861086180000861401008615E
:10180000400048611812E84908608020E74900E07C
:1018100011E04861086180000861401008614000E3
:101820004861D8B2E04908608020E0494861086119
:101830008000086124E1DE48808845F2105188422A
:101840007ED1DB494889FEF75FFF4FF48070D749AE
:101850000861400048612012D34908608020D349C4
:101860004861086180000861D1494989491C88B2F2
:10187000FEF74AFF4FF48070CC4908614000486190
:10188000E0B2C94908608020C84948610861800009
:101890000861C7494989891C88B2FEF735FF4FF4B2
:1018A0008070C2490861400048613812BE49086032
:1018B0008020BE494861086180000861BC494989AF
:1018C000C91C88B2FEF720FF4FF48070B749086149
:1018D00040004861F8B2B44908608020B3494861CB
:1018E000086180000861B2498889FEF70DFF4FF456
:1018F0008070AE490861400048612812AA4908601A
:101900008020AA494861086180000861A849898946
:10191000491C88B2FEF7F8FE4FF48070A3490861B5
:1019200040004861E8B2A049086080209F494861B2
:101930000861800008619E498989891C88B200E09D
:1019400028E0FEF7E1FE4FF48070984908614000FE
:1019500048614FEA282094490860802093494861F3
:1019600008618000086192498989C91C88B2FEF724
:10197000CBFE4FF480708D4908614000486108F04B
:10198000FF0089490860802088494861086180001B
:10199000086175E086494889FEF7B6FE4FF480700D
:1019A000824908614000486120127F490860802018
:1019B0007E4948610861800008614010086140006C
:1019C0004861E0B278490860802078494861086140
:1019D0008000086140100861400048613812724977
:1019E00008608020714948610861800008614010EA
:1019F000086140004861F8B26B49086080206B497B
:101A0000486108618000086169498889FEF77CFEA9
:101A10004FF48070654908614000486128126249AE
:101A200008608020614948610861800008614010B9
:101A3000086140004861E8B25B49086080205B496A
:101A400048610861800008614010086140004861F9
:101A50004FEA2820544908608020544948610861B1
:101A600080000861401008614000486108F0FF00F4
:101A70004D49086080204D49486108618000086137
:101A8000BDE8F08170B504460026494805884088C5
:101A9000454300210846FFF752F8FFF74AF800BF18
:101AA0000DE04FF4807041490861400048613E48B4
:101AB000046080204861086180000861761CAE42A5
:101AC000EFD370BD08B50121192003F0DBFA012125
:101AD000384803F0ECF84FF4F860ADF8000010203F
:101AE0008DF8030003208DF8020069462F4803F0AB
:101AF0000DF84FF4F8612D4803F0B5F84FF6FF707C
:101B0000ADF80000694628480C3802F0FFFF4FF698
:101B1000FF7125480C3803F0A6F8322002F0A9FE28
:101B200001210020FFF76AFA322002F0A2FED32042
:101B3000FEF7EAFDFFF737FA1D498880FFF733FA11
:101B40001B498880FFF72FFA19498880084680884A
:101B50004FF6FF7101EA002015498880FFF723FA4C
:101B6000134989880843124988800846808849F2C9
:101B7000413188427ED00420FEF7C6FDFFF713FAFC
:101B80000B498880FFF70FFA09498880FFF70BFAA5
:101B900007498880084680884FF6FF7101EA0020D7
:101BA0000349888008E000000C0C0140001001404F
:101BB0005800002000023000FFF7F5F9FE4989883F
:101BC0000843FD4988800846808848F2525188427F
:101BD00003D147F28970F8498880F748808847F236
:101BE00089718842C6D0D420FEF78EFDFFF7DBF95D
:101BF000F1498880FFF7D7F9EF498880FFF7D3F9DB
:101C0000ED498880084680884FF6FF7101EA002080
:101C1000E9498880FFF7C7F9E74989880843E64919
:101C200088800846808845F21031884262D055216C
:101C30004FF47040FFF7E2F9AA214FF20100FFF7DD
:101C4000DDF952214FF20200FFF7D8F908214FF2D7
:101C50000300FFF7D3F901214FF20400FFF7CEF99B
:101C60004FF44540FEF750FDFFF79DF9D2498880BB
:101C7000084600E03EE080884FF6FF7101EA002050
:101C8000CD4988804CF20150FEF73EFDFFF78BF9FD
:101C9000C94989880843C8498880052002F0E9FDC0
:101CA000C548808845F21051884223D0A120FEF714
:101CB0002BFDFFF778F9C0498880FFF774F9BE491A
:101CC0008880084680884FF6FF7101EA0020BA49F3
:101CD0008880FFF768F9B84989880843B649888041
:101CE0000846808845F26171884203D141F663104D
:101CF000B1498880B0488188B0A004F06FFCAE483C
:101D0000808849F2413188427ED1CF20FEF7FCFC29
:101D10000020FFF733F9C120FFF730F93020FFF73B
:101D20002DF9ED20FEF7F0FC6420FFF727F90320E2
:101D3000FFF724F91220FFF721F98120FFF71EF9A0
:101D4000E820FEF7E1FC8520FFF718F91020FFF7E7
:101D500015F97A20FFF712F9CB20FEF7D5FC3920D0
:101D6000FFF70CF92C20FFF709F90020FFF706F91F
:101D70003420FFF703F90220FFF700F9F720FEF700
:101D8000C3FC2020FFF7FAF8EA20FEF7BDFC002094
:101D9000FFF7F4F80020FFF7F1F8C020FEF7B4FCDD
:101DA0001B20FFF7EBF8C120FEF7AEFC0120FFF788
:101DB000E5F8C520FEF7A8FC3020FFF7DFF830205B
:101DC000FFF7DCF8C720FEF79FFCB720FFF7D6F837
:101DD0003620FEF799FC4820FFF7D0F83A20FEF7AE
:101DE00093FC5520FFF7CAF8B120FEF78DFC0020C8
:101DF000FFF7C4F81A20FFF7C1F8B620FEF784FCFD
:101E00000A20FFF7BBF800E097E0A220FFF7B6F842
:101E1000F220FEF779FC0020FFF7B0F82620FEF74D
:101E200073FC0120FFF7AAF8E020FEF76DFC0F20FD
:101E3000FFF7A4F82A20FFF7A1F82820FFF79EF863
:101E40000820FFF79BF80E20FFF798F80820FFF70F
:101E500095F85420FFF792F8A920FFF78FF8432058
:101E6000FFF78CF80A20FFF789F80F20FFF786F8B4
:101E70000020FFF783F80020FFF780F80020FFF72D
:101E80007DF80020FFF77AF8E120FEF73DFC002006
:101E9000FFF774F81520FFF771F81720FFF76EF8B9
:101EA0000720FFF76BF81120FFF768F80620FFF70F
:101EB00065F82B20FFF762F85620FFF75FF83C200B
:101EC000FFF75CF80520FFF759F81020FFF756F8E8
:101ED0000F20FFF753F83F20FFF750F83F20FFF7A0
:101EE0004DF80F20FFF74AF82B20FEF70DFC0020DD
:101EF000FFF744F80020FFF741F80120FFF73EF814
:101F00003F20FFF73BF82A20FEF7FEFB0020FFF7FB
:101F100035F80020FFF732F80020FFF72FF8EF2008
:101F2000FFF72CF81120FEF7EFFB782002F0A1FC60
:101F30002920FEF7E9FB02F06BBA1F48808847F2C0
:101F4000897188427ED11120FEF7DEFB782002F0F5
:101F500090FC3620FEF7D8FB0020FFF70FF83A2060
:101F6000FEF7D2FB0520FFF709F8B220FEF7CCFB05
:101F70000C20FFF703F80C20FFF700F80020FEF715
:101F8000FDFF3320FEF7FAFF3320FEF7F7FFB720FF
:101F9000FEF7BAFB3520FEF7F1FFBB20FEF7B4FBDE
:101FA0003220FEF7EBFFC020FEF7AEFB0C20FEF761
:101FB000E5FFC2200AE0000058000020204C434406
:101FC0002049443A25780D0A00000000FEF79CFBEA
:101FD0000120FEF7D3FFC320FEF796FB1020FEF78B
:101FE000CDFFC420FEF790FB2020FEF7C7FFC620E0
:101FF000FEF78AFB0F20FEF7C1FFD020FEF784FB1F
:10200000A420FEF7BBFFA120FEF7B8FFE020FEF7FB
:102010007BFBD020FEF7B2FF0020FEF7AFFF0220CF
:10202000FEF7ACFF0720FEF7A9FF0A20FEF7A6FF88
:102030002820FEF7A3FF3220FEF7A0FF4420FEF782
:102040009DFF00E060E04220FEF798FF0620FEF7CB
:1020500095FF0E20FEF792FF1220FEF78FFF14204F
:10206000FEF78CFF1720FEF789FFE120FEF74CFBFF
:10207000D020FEF783FF0020FEF780FF0220FEF74E
:102080007DFF0720FEF77AFF0A20FEF777FF282062
:10209000FEF774FF3120FEF771FF5420FEF76EFF4C
:1020A0004720FEF76BFF0E20FEF768FF1C20FEF7AF
:1020B00065FF1720FEF762FF1B20FEF75FFF1E2063
:1020C000FEF75CFF2A20FEF71FFB0020FEF756FFFD
:1020D0000020FEF753FF0020FEF750FFEF20FEF731
:1020E0004DFF2B20FEF710FB0020FEF747FF0020DE
:1020F000FEF744FF0120FEF741FF3F20FEF73EFFC1
:102100002920FEF701FB16E7FE48808845F21031D2
:10211000884240F07C87ED20FEF7F6FA0120FEF7BA
:102120002DFFFE20FEF72AFFEE20FEF7EDFADE205F
:10213000FEF724FF2120FEF721FFF120FEF7E4FA4D
:102140000120FEF71BFFDF20FEF7DEFA1020FEF76E
:1021500015FFC420FEF7D8FA8F20FEF70FFFC62028
:10216000FEF7D2FA0020FEF709FFE220FEF706FF95
:10217000E220FEF703FFE220FEF700FFBF20FEF79C
:10218000C3FAAA20FEF7FAFEB020FEF7BDFA0D2032
:10219000FEF7F4FE0020FEF7F1FE0D20FEF7EEFE46
:1021A0000020FEF7EBFE1120FEF7E8FE0020FEF710
:1021B000E5FE1920FEF7E2FE0020FEF7DFFE2120FB
:1021C000FEF7DCFE0020FEF7D9FE2D20FEF7D6FE3E
:1021D0000020FEF7D3FE3D20FEF7D0FE0020FEF7E4
:1021E000CDFE5D20FEF7CAFE0020FEF7C7FE5D2093
:1021F000FEF7C4FE0020FEF7C1FEB120FEF784FA10
:102200008020FEF7BBFE0020FEF7B8FE8B20FEF715
:10221000B5FE0020FEF7B2FE9620FEF7AFFE0020CE
:10222000FEF7ACFEB220FEF76FFA0020FEF7A6FE26
:102230000020FEF7A3FE0220FEF7A0FE0020FEF71E
:102240009DFE0320FEF79AFE0020FEF797FEB320C6
:10225000FEF75AFA0020FEF791FE0020FEF78EFEF0
:102260000020FEF78BFE0020FEF788FE0020FEF720
:1022700085FE0020FEF782FE0020FEF77FFE002094
:10228000FEF77CFE0020FEF779FE0020FEF776FECA
:102290000020FEF773FE0020FEF770FE0020FEF720
:1022A0006DFE0020FEF76AFE0020FEF767FE0020AC
:1022B000FEF764FE0020FEF761FE0020FEF75EFEE2
:1022C0000020FEF75BFE0020FEF758FE0020FEF720
:1022D00055FE0020FEF752FE0020FEF74FFE0020C4
:1022E000FEF74CFEB420FEF70FFA8B20FEF746FEF9
:1022F0000020FEF743FE9620FEF740FE0020FEF78A
:102300003DFEA120FEF73AFE0020FEF737FEB52085
:10231000FEF7FAF90220FEF731FE0020FEF72EFE4E
:102320000320FEF72BFE0020FEF728FE0420FEF718
:1023300025FE0020FEF722FEB620FEF7E5F900207C
:10234000FEF71CFE0020FEF719FEB720FEF7DCF9B1
:102350000020FEF713FE0020FEF710FE3F20FEF7E0
:102360000DFE0020FEF70AFE5E20FEF707FE0020AD
:10237000FEF704FE6420FEF701FE0020FEF7FEFDDE
:102380008C20FEF7FBFD0020FEF7F8FDAC20FEF7E9
:10239000F5FD0020FEF7F2FDDC20FEF7EFFD00204A
:1023A000FEF7ECFD7020FEF7E9FD0020FEF7E6FDEC
:1023B0009020FEF7E3FD0020FEF7E0FDEB20FEF7A6
:1023C000DDFD0020FEF7DAFDDC20FEF7D7FD002062
:1023D000FEF7D4FDB820FEF797F90020FEF7CEFDFA
:1023E0000020FEF7CBFD0020FEF7C8FD0020FEF721
:1023F000C5FD0020FEF7C2FD0020FEF7BFFD002056
:10240000FEF7BCFD0020FEF7B9FDBA20FEF77CF90F
:102410002420FEF7B3FD0020FEF7B0FD0020FEF7FC
:10242000ADFD0020FEF7AAFDC120FEF76DF92020CA
:10243000FEF7A4FD0020FEF7A1FD5420FEF79EFD4F
:102440000020FEF79BFDFF20FEF798FD0020FEF721
:1024500095FDC220FEF758F90A20FEF78FFD0020F7
:10246000FEF78CFD0420FEF789FD0020FEF786FDB7
:10247000C320FEF749F93C20FEF780FD0020FEF75F
:102480007DFD3A20FEF77AFD0020FEF777FD39202A
:10249000FEF774FD0020FEF771FD3720FEF76EFD9C
:1024A0000020FEF76BFD3C20FEF768FD0020FEF7E4
:1024B00065FD3620FEF762FD0020FEF75FFD32204D
:1024C000FEF75CFD0020FEF759FD2F20FEF756FDBC
:1024D0000020FEF753FD2C20FEF750FD0020FEF7F4
:1024E0004DFD2920FEF74AFD0020FEF747FD26207E
:1024F000FEF744FD0020FEF741FD2420FEF73EFDDF
:10250000002001E058000020FEF738FD2420FEF7EF
:1025100035FD0020FEF732FD2320FEF72FFD0020C1
:10252000FEF72CFD3C20FEF729FD0020FEF726FDDE
:102530003620FEF723FD0020FEF720FD3220FEF7B7
:102540001DFD0020FEF71AFD2F20FEF717FD0020CD
:10255000FEF714FD2C20FEF711FD0020FEF70EFD06
:102560002920FEF70BFD0020FEF708FD2620FEF7D0
:1025700005FD0020FEF702FD2420FEF7FFFC0020F1
:10258000FEF7FCFC2420FEF7F9FC0020FEF7F6FC29
:102590002320FEF7F3FC0020FEF7F0FCC420FEF73A
:1025A000B3F86220FEF7EAFC0020FEF7E7FC052006
:1025B000FEF7E4FC0020FEF7E1FC8420FEF7DEFCE1
:1025C0000020FEF7DBFCF020FEF7D8FC0020FEF731
:1025D000D5FC1820FEF7D2FC0020FEF7CFFCA4208B
:1025E000FEF7CCFC0020FEF7C9FC1820FEF7C6FC65
:1025F0000020FEF7C3FC5020FEF7C0FC0020FEF7D1
:10260000BDFC0C20FEF7BAFC0020FEF7B7FC17203B
:10261000FEF7B4FC0020FEF7B1FC9520FEF7AEFCFF
:102620000020FEF7ABFCF320FEF7A8FC0020FEF72D
:10263000A5FCE620FEF7A2FC0020FEF79FFCC520CB
:10264000FEF762F83220FEF799FC0020FEF796FCB8
:102650004420FEF793FC0020FEF790FC6520FEF777
:102660008DFC0020FEF78AFC7620FEF787FC002018
:10267000FEF784FC8820FEF781FC0020FEF77EFC3C
:10268000C620FEF741F82020FEF778FC0020FEF778
:1026900075FC1720FEF772FC0020FEF76FFC01208E
:1026A000FEF76CFC0020FEF769FCC720FEF72CF853
:1026B0000020FEF763FC0020FEF760FC0020FEF720
:1026C0005DFC0020FEF75AFCC820FEF71DF8002034
:1026D000FEF754FC0020FEF751FC0020FEF74EFCF4
:1026E0000020FEF74BFCC920FEF70EF80020FEF795
:1026F00045FC0020FEF742FC0020FEF73FFC0020D6
:10270000FEF73CFC0020FEF739FC0020FEF736FC0B
:102710000020FEF733FC0020FEF730FC0020FEF71F
:102720002DFC0020FEF72AFC0020FEF727FC0020ED
:10273000FEF724FC0020FEF721FC0020FEF71EFC23
:102740000020FEF71BFC0020FEF718FCE020FDF740
:10275000DBFF1620FEF712FC0020FEF70FFC1C200A
:10276000FEF70CFC0020FEF709FC2120FEF706FC1A
:102770000020FEF703FC3620FEF700FC0020FEF7E9
:10278000FDFB4620FEF7FAFB0020FEF7F7FB522088
:10279000FEF7F4FB0020FEF7F1FB6420FEF7EEFBF2
:1027A0000020FEF7EBFB7A20FEF7E8FB0020FEF7A7
:1027B000E5FB8B20FEF7E2FB0020FEF7DFFB992014
:1027C000FEF7DCFB0020FEF7D9FBA820FEF7D6FBC6
:1027D0000020FEF7D3FBB920FEF7D0FB0020FEF768
:1027E000CDFBC420FEF7CAFB0020FEF7C7FBCA20C2
:1027F000FEF7C4FB0020FEF7C1FBD220FEF7BEFBB4
:102800000020FEF7BBFBD920FEF7B8FB0020FEF747
:10281000B5FBE020FEF7B2FB0020FEF7AFFBF32094
:10282000FEF7ACFB0020FEF7A9FBE120FDF76CFFF3
:102830001620FEF7A3FB0020FEF7A0FB1C20FEF7EE
:102840009DFB0020FEF79AFB2220FEF797FB00205D
:10285000FEF794FB3620FEF791FB0020FEF78EFB7F
:102860004520FEF78BFB0020FEF788FB5220FEF789
:1028700085FB0020FEF782FB6420FEF77FFB002033
:10288000FEF77CFB7A20FEF779FB0020FEF776FB53
:102890008B20FEF773FB0020FEF770FB9920FEF7FC
:1028A0006DFB0020FEF76AFBA820FEF767FB002007
:1028B000FEF764FBB920FEF761FB0020FEF75EFB2C
:1028C000C420FEF75BFB0020FEF758FBCA20FEF792
:1028D00055FB0020FEF752FBD220FEF74FFB0020F5
:1028E000FEF74CFBD820FEF749FB0020FEF746FB25
:1028F000E020FEF743FB0020FEF740FBF320FEF74D
:102900003DFB0020FEF73AFBE220FDF7FDFE05202F
:10291000FEF734FB0020FEF731FB0B20FEF72EFB09
:102920000020FEF72BFB1B20FEF728FB0020FEF704
:1029300025FB3420FEF722FB0020FEF71FFB44207E
:10294000FEF71CFB0020FEF719FB4F20FEF716FBDD
:102950000020FEF713FB6120FEF710FB0020FEF7BE
:102960000DFB7920FEF70AFB0020FEF707FB88200D
:10297000FEF704FB0020FEF701FB9720FEF7FEFAAE
:102980000020FEF7FBFAA620FEF7F8FA0020FEF77B
:10299000F5FAB720FEF7F2FA0020FEF7EFFAC220B0
:1029A000FEF7ECFA0020FEF7E9FAC720FEF7E6FA98
:1029B0000020FEF7E3FAD120FEF7E0FA0020FEF750
:1029C000DDFAD620FEF7DAFA0020FEF7D7FADD208E
:1029D000FEF7D4FA0020FEF7D1FAF320FEF7CEFA84
:1029E0000020FEF7CBFAE320FDF78EFE0520FEF770
:1029F000C5FA0020FEF7C2FA0A20FEF7BFFA00204F
:102A0000FEF7BCFA1C20FEF7B9FA0020FEF7B6FA72
:102A10003320FEF7B3FA0020FEF7B0FA4420FEF7A9
:102A2000ADFA0020FEF7AAFA5020FEF7A7FA002020
:102A3000FEF7A4FA6220FEF7A1FA0020FEF79EFA44
:102A40007820FEF79BFA0020FEF798FA8820FEF720
:102A500095FA0020FEF792FA9720FEF78FFA0020F1
:102A6000FEF78CFAA620FEF789FA0020FEF786FA18
:102A7000B720FEF783FA0020FEF780FAC220FEF7A7
:102A80007DFA0020FEF77AFAC720FEF777FA0020D9
:102A9000FEF774FAD120FEF771FA0020FEF76EFA05
:102AA000D520FEF76BFA0020FEF768FADD20FEF76E
:102AB00065FA0020FEF762FAF320FEF75FFA0020C5
:102AC000FEF75CFAE420FDF71FFE0120FEF756FA40
:102AD0000020FEF753FA0120FEF750FA0020FEF71F
:102AE0004DFA0220FEF74AFA0020FEF747FA2A20A4
:102AF000FEF744FA0020FEF741FA3C20FEF73EFACA
:102B00000020FEF73BFA4B20FEF738FA0020FEF7D4
:102B100035FA5D20FEF732FA0020FEF72FFA742016
:102B2000FEF72CFA0020FEF729FA8420FEF726FA99
:102B30000020FEF723FA9320FEF720FA0020FEF78C
:102B40001DFAA220FEF71AFA0020FEF717FAB320AA
:102B5000FEF714FA0020FEF711FABE20FEF70EFA77
:102B60000020FEF70BFAC420FEF708FA0020FEF75B
:102B700005FACD20FEF702FA0020FEF7FFF9D32078
:102B8000FEF7FCF90020FEF7F9F9DD20FEF7F6F973
:102B90000020FEF7F3F9F320FEF7F0F90020FEF72E
:102BA000EDF9E520FDF7B0FD0020FEF7E7F9002084
:102BB000FEF7E4F90020FEF7E1F90020FEF7DEF968
:102BC0000220FEF7DBF90020FEF7D8F92920FEF7F6
:102BD000D5F90020FEF7D2F93C20FEF7CFF900200E
:102BE000FEF7CCF94B20FEF7C9F90020FEF7C6F935
:102BF0005D20FEF7C3F90020FEF7C0F97420FEF750
:102C0000BDF90020FEF7BAF98420FEF7B7F90020DD
:102C1000FEF7B4F99320FEF7B1F90020FEF7AEF904
:102C2000A220FEF7ABF90020FEF7A8F9B320FEF7CB
:102C3000A5F90020FEF7A2F9BE20FEF79FF90020BB
:102C4000FEF79CF9C420FEF799F90020FEF796F9EB
:102C5000CD20FEF793F90020FEF790F9D320FEF780
:102C60008DF90020FEF78AF9DC20FEF787F90020B5
:102C7000FEF784F9F320FEF781F90020FEF77EF9D4
:102C8000E620FDF741FD1120FEF778F90020FEF760
:102C900075F93420FEF772F90020FEF76FF956201F
:102CA000FEF76CF90020FEF769F97620FEF766F969
:102CB0000020FEF763F97720FEF760F90020FEF7A9
:102CC0005DF96620FEF75AF90020FEF757F98820D3
:102CD000FEF754F90020FEF751F99920FEF74EF95E
:102CE0000020FEF74BF9BB20FEF748F90020FEF765
:102CF00045F99920FEF742F90020FEF73FF96620DA
:102D0000FEF73CF90020FEF739F95520FEF736F9B9
:102D10000020FEF733F95520FEF730F90020FEF7CA
:102D20002DF94520FEF72AF90020FEF727F9432068
:102D3000FEF724F90020FEF721F94420FEF71EF9E2
:102D40000020FEF71BF9E720FDF7DEFC3220FEF73E
:102D500015F90020FEF712F95520FEF70FF90020B3
:102D6000FEF70CF97620FEF709F90020FEF706F9C8
:102D70006620FEF703F90020FEF700F96720FEF752
:102D8000FDF80020FEF7FAF86720FEF7F7F80020BC
:102D9000FEF7F4F88720FEF7F1F80020FEF7EEF8D2
:102DA0009920FEF7EBF80020FEF7E8F8BB20FEF7CD
:102DB000E5F80020FEF7E2F89920FEF7DFF80020A2
:102DC000FEF7DCF87720FEF7D9F80020FEF7D6F8FA
:102DD0004420FEF7D3F80020FEF7D0F85620FEF787
:102DE000CDF80020FEF7CAF82320FEF7C7F8002030
:102DF000FEF7C4F83320FEF7C1F80020FEF7BEF856
:102E00004520FEF7BBF80020FEF7B8F8E820FDF7F4
:102E10007BFC0020FEF7B2F80020FEF7AFF8992007
:102E2000FEF7ACF80020FEF7A9F88720FEF7A6F819
:102E30000020FEF7A3F88820FEF7A0F80020FEF798
:102E40009DF87720FEF79AF80020FEF797F86620A5
:102E5000FEF794F80020FEF791F88820FEF78EF830
:102E60000020FEF78BF8AA20FEF788F80020FEF776
:102E700085F8BB20FEF782F80020FEF77FF8992046
:102E8000FEF77CF80020FEF779F86620FEF776F86A
:102E90000020FEF773F85520FEF770F80020FEF7CB
:102EA0006DF85520FEF76AF80020FEF767F8442019
:102EB000FEF764F80020FEF761F84420FEF75EF8A4
:102EC0000020FEF75BF85520FEF758F80020FEF7CB
:102ED00055F8E920FDF718FCAA20FEF74FF800206E
:102EE000FEF74CF80020FEF749F80020FEF746F800
:102EF0000020FDF709FCAA20FEF740F8CF20FDF7DF
:102F000003FC0020FEF73AF80020FEF737F8002017
:102F1000FEF734F80020FEF731F80020FEF72EF817
:102F20000020FEF72BF80020FEF728F80020FEF71F
:102F300025F80020FEF722F80020FEF71FF80020F9
:102F4000FEF71CF80020FEF719F80020FEF716F82F
:102F50000020FEF713F80020FEF710F80020FEF71F
:102F60000DF80020FEF70AF8F020FDF7CDFB002059
:102F7000FEF704F85020FEF701F80020FDF7FEFFF1
:102F80000020FDF7FBFF0020FDF7F8FFF320FDF721
:102F9000BBFB0020FDF7F2FFF920FDF7B5FB062093
:102FA000FDF7ECFF1020FDF7E9FF2920FDF7E6FF14
:102FB0000020FDF7E3FF3A20FDF7A6FB5520FDF7C3
:102FC000DDFF1120FDF7A0FB642001F052FC292059
:102FD000FDF79AFB3520FDF797FB0020FDF7CEFFAC
:102FE0005120FDF791FBFF20FDF7C8FF5320FDF7AF
:102FF0008BFB2C20FDF7C2FF5520FDF785FB8220BF
:10300000FDF7BCFF2C20FDF77FFB01F001BAFE4865
:10301000808845F2105188427ED155214FF470408E
:10302000FDF7ECFFAA214FF20100FDF7E7FF522167
:103030004FF20200FDF7E2FF08214FF20300FDF717
:10304000DDFF01214FF20400FDF7D8FF0D214FF401
:103050003040FDF7D3FF0D214BF20100FDF7CEFF0D
:103060000D214BF20200FDF7C9FF34214FF4364029
:10307000FDF7C4FF34214BF20160FDF7BFFF34219F
:103080004BF20260FDF7BAFF0D214FF43140FDF71E
:10309000B5FF0D214BF20110FDF7B0FF0D214BF2F2
:1030A0000210FDF7ABFF34214FF43740FDF7A6FFC8
:1030B00034214BF20170FDF7A1FF34214BF2027075
:1030C000FDF79CFF00214FF43240FDF797FF0021F0
:1030D0004BF20120FDF792FF00214BF20220FDF799
:1030E0008DFF24214FF43840FDF788FF24214BF653
:1030F0000100FDF783FF24214BF60200FDF77EFF60
:1031000001214FF43F40FDF779FF0F214FF4334089
:10311000FDF774FF0F2100E0FEE34BF20130FDF7F5
:103120006DFF0F214BF20230FDF768FF34214FF4A1
:103130003940FDF763FF34214BF60110FDF75EFFC8
:1031400034214BF60210FDF759FF08214FF43540AA
:10315000FDF754FF08214BF20150FDF74FFF082106
:103160004BF20250FDF74AFF03214FF44240FDF7B6
:1031700045FF24214FF43A40FDF740FF24214BF650
:103180000120FDF73BFF24214BF60220FDF736FF1F
:1031900000214FF43C40FDF731FF78214BF6014010
:1031A000FDF72CFF00214BF60240FDF727FF002121
:1031B0004FF43D40FDF722FF78214BF60150FDF71B
:1031C0001DFF00214BF60250FDF718FF00214FF4C0
:1031D0003E40FDF713FF64214BF60160FDF70EFF43
:1031E00000214FF45140FDF709FF33214DF201104A
:1031F000FDF704FF00214DF20210FDF7FFFE342120
:103200004DF20310FDF7FAFE00214DF20410FDF718
:10321000F5FE3A214DF20510FDF7F0FE00214DF2CA
:103220000610FDF7EBFE4A214DF20710FDF7E6FE12
:1032300000214DF20810FDF7E1FE5C214DF209106E
:10324000FDF7DCFE00214DF20A10FDF7D7FE8121CB
:103250004DF20B10FDF7D2FE00214DF20C10FDF7E0
:10326000CDFEA6214DF20D10FDF7C8FE00214DF256
:103270000E10FDF7C3FEE5214DF20F10FDF7BEFE67
:1032800001214DF21010FDF7B9FE13214DF211107E
:10329000FDF7B4FE01214DF21210FDF7AFFE5421EF
:1032A0004DF21310FDF7AAFE01214DF21410FDF7A7
:1032B000A5FE82214DF21510FDF7A0FE01214DF271
:1032C0001610FDF79BFECA214DF21710FDF796FE72
:1032D00002214DF21810FDF791FE00214DF2191058
:1032E000FDF78CFE02214DF21A10FDF787FE012139
:1032F0004DF21B10FDF782FE02214DF21C10FDF76E
:103300007DFE34214DF21D10FDF778FE02214DF2B5
:103310001E10FDF773FE67214DF21F10FDF76EFEC4
:1033200002214DF22010FDF769FE84214DF221109B
:10333000FDF764FE02214DF22210FDF75FFEA4218D
:103340004DF22310FDF75AFE02214DF22410FDF735
:1033500055FEB7214DF22510FDF750FE02214DF22A
:103360002610FDF74BFECF214DF22710FDF746FE4C
:1033700002214DF22810FDF741FEDE214DF2291009
:10338000FDF73CFE02214DF22A10FDF737FEF22137
:103390004DF22B10FDF732FE02214DF22C10FDF7FD
:1033A0002DFEFE214DF22D10FDF728FE03214DF2DA
:1033B0002E10FDF723FE10214DF22F10FDF71EFEFB
:1033C00003214DF23010FDF719FE33214DF231107B
:1033D000FDF714FE03214DF23210FDF70FFE6D21B3
:1033E0004DF23310FDF70AFE00214FF45240FDF775
:1033F00005FE33214DF20120FDF700FE00214DF2C4
:103400000220FDF7FBFD01E05800002034214DF2C1
:103410000320FDF7F3FD00214DF20420FDF7EEFD42
:103420003A214DF20520FDF7E9FD00214DF206207D
:10343000FDF7E4FD4A214DF20720FDF7DFFD0021F5
:103440004DF20820FDF7DAFD5C214DF20920FDF771
:10345000D5FD00214DF20A20FDF7D0FD81214DF26E
:103460000B20FDF7CBFD00214DF20C20FDF7C6FD32
:10347000A6214DF20D20FDF7C1FD00214DF20E20D9
:10348000FDF7BCFDE5214DF20F20FDF7B7FD012151
:103490004DF21020FDF7B2FD13214DF21120FDF782
:1034A000ADFD01214DF21220FDF7A8FD54214DF292
:1034B0001320FDF7A3FD01214DF21420FDF79EFD21
:1034C00082214DF21520FDF799FD01214DF21620C4
:1034D000FDF794FDCA214DF21720FDF78FFD022163
:1034E0004DF21820FDF78AFD00214DF21920FDF75D
:1034F00085FD02214DF21A20FDF780FD01214DF2DC
:103500001B20FDF77BFD02214DF21C20FDF776FD0F
:1035100034214DF21D20FDF771FD02214DF21E20D8
:10352000FDF76CFD67214DF21F20FDF767FD0221BD
:103530004DF22020FDF762FD84214DF22120FDF7A0
:103540005DFD02214DF22220FDF758FDA4214DF230
:103550002320FDF753FD02214DF22420FDF74EFDFF
:10356000B7214DF22520FDF749FD02214DF226201D
:10357000FDF744FDCF214DF22720FDF73FFD02214D
:103580004DF22820FDF73AFDDE214DF22920FDF70E
:1035900035FD02214DF22A20FDF730FDF2214DF2DA
:1035A0002B20FDF72BFD02214DF22C20FDF726FDEF
:1035B000FE214DF22D20FDF721FD03214DF22E209D
:1035C000FDF71CFD10214DF22F20FDF717FD032103
:1035D0004DF23020FDF712FD33214DF23120FDF781
:1035E0000DFD03214DF23220FDF708FD6D214DF256
:1035F0003320FDF703FD00214FF45340FDF7FEFC9F
:1036000033214DF20130FDF7F9FC00214DF202307B
:10361000FDF7F4FC34214DF20330FDF7EFFC0021FF
:103620004DF20430FDF7EAFC3A214DF20530FDF78A
:10363000E5FC00214DF20630FDF7E0FC4A214DF299
:103640000730FDF7DBFC00214DF20830FDF7D6FC1A
:103650005C214DF20930FDF7D1FC00214DF20A301A
:10366000FDF7CCFC81214DF20B30FDF7C7FC0021AA
:103670004DF20C30FDF7C2FCA6214DF20D30FDF7E6
:10368000BDFC00214DF20E30FDF7B8FCE5214DF2F6
:103690000F30FDF7B3FC01214DF21030FDF7AEFC09
:1036A00013214DF21130FDF7A9FC01214DF212302A
:1036B000FDF7A4FC54214DF21330FDF79FFC0121CE
:1036C0004DF21430FDF79AFC82214DF21530FDF7D2
:1036D00095FC01214DF21630FDF790FCCA214DF208
:1036E0001730FDF78BFC02214DF21830FDF786FCF8
:1036F00000214DF21930FDF781FC02214DF21A3004
:10370000FDF77CFC01214DF21B30FDF777FC022117
:103710004DF21C30FDF772FC34214DF21D30FDF7E7
:103720006DFC02214DF21E30FDF768FC67214DF261
:103730001F30FDF763FC02214DF22030FDF75EFCE7
:1037400084214DF22130FDF759FC02214DF2223047
:10375000FDF754FCA4214DF22330FDF74FFC02216C
:103760004DF22430FDF74AFCB7214DF22530FDF72C
:1037700045FC02214DF22630FDF740FCCF214DF2F1
:103780002730FDF73BFC02214DF22830FDF736FCD7
:10379000DE214DF22930FDF731FC02214DF22A30B5
:1037A000FDF72CFCF2214DF22B30FDF727FC022116
:1037B0004DF22C30FDF722FCFE214DF22D30FDF7AD
:1037C0001DFC03214DF22E30FDF718FC10214DF2A7
:1037D0002F30FDF713FC03214DF23030FDF70EFCC6
:1037E00033214DF23130FDF709FC03214DF2323027
:1037F000FDF704FC6D214DF23330FDF7FFFB002196
:103800004FF45440FDF7FAFB33214DF20140FDF730
:10381000F5FB00214DF20240FDF7F0FB34214DF2A3
:103820000340FDF7EBFB00214DF20440FDF7E6FB02
:103830003A214DF20540FDF7E1FB00214DF2064033
:10384000FDF7DCFB4A214DF20740FDF7D7FB0021D5
:103850004DF20840FDF7D2FB5C214DF20940FDF727
:10386000CDFB00214DF20A40FDF7C8FB81214DF24E
:103870000B40FDF7C3FB00214DF20C40FDF7BEFBF2
:10388000A6214DF20D40FDF7B9FB00214DF20E408F
:10389000FDF7B4FBE5214DF20F40FDF7AFFB012131
:1038A0004DF21040FDF7AAFB13214DF21140FDF738
:1038B000A5FB01214DF21240FDF7A0FB54214DF272
:1038C0001340FDF79BFB01214DF21440FDF796FBE1
:1038D00082214DF21540FDF791FB01214DF216407A
:1038E000FDF78CFBCA214DF21740FDF787FB022143
:1038F0004DF21840FDF782FB00214DF21940FDF713
:103900007DFB02214DF21A40FDF778FB01214DF2BB
:103910001B40FDF773FB00E003E302214DF21C4066
:10392000FDF76CFB34214DF21D40FDF767FB0221D2
:103930004DF21E40FDF762FB67214DF21F40FDF77F
:103940005DFB02214DF22040FDF758FB84214DF232
:103950002140FDF753FB02214DF22240FDF74EFBC3
:10396000A4214DF22340FDF749FB02214DF22440F2
:10397000FDF744FBB7214DF22540FDF73FFB022147
:103980004DF22640FDF73AFBCF214DF22740FDF7DF
:1039900035FB02214DF22840FDF730FBDE214DF2D0
:1039A0002940FDF72BFB02214DF22A40FDF726FBB3
:1039B000F2214DF22B40FDF721FB02214DF22C406C
:1039C000FDF71CFBFE214DF22D40FDF717FB0321F7
:1039D0004DF22E40FDF712FB10214DF22F40FDF766
:1039E0000DFB03214DF23040FDF708FB33214DF272
:1039F0003140FDF703FB03214DF23240FDF7FEFAA3
:103A00006D214DF23340FDF7F9FA00214FF4554096
:103A1000FDF7F4FA33214DF20150FDF7EFFA0021E2
:103A20004DF20250FDF7EAFA34214DF20350FDF752
:103A3000E5FA00214DF20450FDF7E0FA3A214DF28B
:103A40000550FDF7DBFA00214DF20650FDF7D6FADE
:103A50004A214DF20750FDF7D1FA00214DF20850EE
:103A6000FDF7CCFA5C214DF20950FDF7C7FA0021B1
:103A70004DF20A50FDF7C2FA81214DF20B50FDF7CD
:103A8000BDFA00214DF20C50FDF7B8FAA6214DF217
:103A90000D50FDF7B3FA00214DF20E50FDF7AEFACE
:103AA000E5214DF20F50FDF7A9FA01214DF210501A
:103AB000FDF7A4FA13214DF21150FDF79FFA0121F1
:103AC0004DF21250FDF79AFA54214DF21350FDF7C2
:103AD00095FA01214DF21450FDF790FA82214DF232
:103AE0001550FDF78BFA01214DF21650FDF786FABD
:103AF000CA214DF21750FDF781FA02214DF21850FC
:103B0000FDF77CFA00214DF21950FDF777FA0221FA
:103B10004DF21A50FDF772FA01214DF21B50FDF7DC
:103B20006DFA02214DF21C50FDF768FA34214DF276
:103B30001D50FDF763FA02214DF21E50FDF75EFAAB
:103B400067214DF21F50FDF759FA02214DF2205026
:103B5000FDF754FA84214DF22150FDF74FFA02216E
:103B60004DF22250FDF74AFAA4214DF22350FDF701
:103B700045FA02214DF22450FDF740FAB7214DF2EB
:103B80002550FDF73BFA02214DF22650FDF736FA9B
:103B9000CF214DF22750FDF731FA02214DF2285086
:103BA000FDF72CFADE214DF22950FDF727FA02210C
:103BB0004DF22A50FDF722FAF2214DF22B50FDF77B
:103BC0001DFA02214DF22C50FDF718FAFE214DF29C
:103BD0002D50FDF713FA03214DF22E50FDF70EFA8A
:103BE00010214DF22F50FDF709FA03214DF230500C
:103BF000FDF704FA33214DF23150FDF7FFF90321AF
:103C00004DF23250FDF7FAF96D214DF23350FDF7C8
:103C1000F5F900214FF45640FDF7F0F933214DF24C
:103C20000160FDF7EBF900214DF20260FDF7E6F9C6
:103C300034214DF20360FDF7E1F900214DF20460FB
:103C4000FDF7DCF93A214DF20560FDF7D7F90021C7
:103C50004DF20660FDF7D2F94A214DF20760FDF7FB
:103C6000CDF900214DF20860FDF7C8F95C214DF255
:103C70000960FDF7C3F900214DF20A60FDF7BEF9B6
:103C800081214DF20B60FDF7B9F900214DF20C6076
:103C9000FDF7B4F9A6214DF20D60FDF7AFF9002153
:103CA0004DF20E60FDF7AAF9E5214DF20F60FDF728
:103CB000A5F901214DF21060FDF7A0F913214DF295
:103CC0001160FDF79BF901214DF21260FDF796F9A5
:103CD00054214DF21360FDF791F901214DF214606A
:103CE000FDF78CF982214DF21560FDF787F901216E
:103CF0004DF21660FDF782F9CA214DF21760FDF70B
:103D00007DF902214DF21860FDF778F900214DF29E
:103D10001960FDF773F902214DF21A60FDF76EF993
:103D200001214DF21B60FDF769F902214DF21C6083
:103D3000FDF764F934214DF21D60FDF75FF90221B2
:103D40004DF21E60FDF75AF967214DF21F60FDF735
:103D500055F902214DF22060FDF750F984214DF212
:103D60002160FDF74BF902214DF22260FDF746F983
:103D7000A4214DF22360FDF741F902214DF22460A8
:103D8000FDF73CF9B7214DF22560FDF737F9022127
:103D90004DF22660FDF732F9CF214DF22760FDF795
:103DA0002DF902214DF22860FDF728F9DE214DF2B0
:103DB0002960FDF723F902214DF22A60FDF71EF973
:103DC000F2214DF22B60FDF719F902214DF22C6022
:103DD000FDF714F9FE214DF22D60FDF70FF90321D7
:103DE0004DF22E60FDF70AF910214DF22F60FDF71C
:103DF00005F903214DF23060FDF700F933214DF252
:103E00003160FDF7FBF803214DF23260FDF7F6F863
:103E10006D214DF23360FDF7F1F855214FF47040FC
:103E2000FDF7ECF8AA214FF20100FDF7E7F8522167
:103E30004FF20200FDF7E2F808214FF20300FDF710
:103E4000DDF800214FF20400FDF7D8F8CC214FF443
:103E50003140FDF7D3F800214BF20110FDF7CEF809
:103E600005214FF43640FDF7C9F870214FF4374073
:103E7000FDF7C4F870214BF20170FDF7BFF8012186
:103E80004FF43840FDF7BAF803214BF60100FDF777
:103E9000B5F803214BF60200FDF7B0F803214BF60D
:103EA0000300FDF7ABF802214FF43C40FDF7A6F804
:103EB00000214BF60140FDF7A1F800214BF602402E
:103EC000FDF79CF8D0214FF44940FDF797F8022107
:103ED0004CF60110FDF792F850214CF60210FDF758
:103EE0008DF850214CF60310FDF788F850214CF660
:103EF0000410FDF783F800214FF45450FDF77EF8CD
:103F000055214FF46850FDF779F84FF48850FCF7CD
:103F1000FBFB782000F089FC4FF42450FCF7F4FB05
:103F200076E2FE48808841F663118842F8D1E220AB
:103F3000FCF7EAFB4FF48070F949086140004861E2
:103F40001D20F84908608020F5494861086180001B
:103F5000086140100861400048610220F149086092
:103F60008020EF49486108618000086140100861C5
:103F7000400048610420EB4908608020E84948611E
:103F8000086180000861642000F04FFCE020FCF72D
:103F9000BBFB4FF48070E24908614000486101209A
:103FA000E04908608020DE494861086180000861BE
:103FB0000A2000F05EFCE020FCF7A6FB4FF48070C6
:103FC000D7490861400048610320D6490860802035
:103FD000D34948610861800008610C2000F049FC69
:103FE0000120FCF791FB0A2000F043FCE620FCF7DF
:103FF0008BFB4FF48070CA490861400048612F2054
:10400000C84908608020C64948610861800008618D
:104010004010086140004861FF20C24908608020CC
:10402000BF49486108618000086140100861400094
:104030004861FF20BB4908608020B9494861086198
:1040400080000861B020FCF75FFB4FF48070B4493A
:104050000861400048612020B24908608020B049D2
:1040600048610861800008614010086140004861B3
:104070000020AC4908608020A9494861086180009F
:10408000086140100861400048610320A5490860AC
:104090008020A349486108618000086140100861E0
:1040A0004000486140F21F309E49086080209C49D2
:1040B0004861086180000861401008614000486163
:1040C0000120984908608020954948610861800076
:1040D0000861401008614000486140F2DF109149DA
:1040E000086080208E4948610861800008614010A6
:1040F00008614000486100208A49086080208849A2
:104100004861086180000861B420FCF7FDFA4FF4B3
:10411000807083490861400048610420814908603B
:1041200080207F4948610861800008614010086173
:104130004000486140F21F407A4908608020784979
:1041400048610861800008614010086140004861D2
:10415000002074490860802071494861086180002E
:10416000086140100861400048612E206D490860D8
:1041700080206B4948610861800008614010086137
:104180004000486100206749086080206449486118
:10419000086180000861401008614000486100200B
:1041A0006049086080205E494861086180000861BC
:1041B000401008614000486100205A490860802092
:1041C000574948610861800008614010086140005B
:1041D00048610020534908608020514948610861C6
:1041E00080000861B620FCF78FFA4FF480704C49CC
:1041F00008614000486102204A490860802048491F
:104200004861086180000861401008614000486111
:104210004FF40370434908608020414948610861B8
:1042200080000861401008614000486100203D495D
:10423000086080203A4948610861800008614010A8
:1042400008614000486117203649086080203449E1
:1042500048610861800008614010086140004861C1
:1042600015203049086080202D4948610861800090
:104270000861401008614000486100202949086039
:10428000802027494861086180000861401008616A
:10429000400048610020234908608020204948618F
:1042A000086180000861F020FCF72EFA4FF480705E
:1042B0001B4908614000486103201A4908608020BA
:1042C000174948610861800008612920FCF71CFA41
:1042D000D020FCF719FA4FF48070114908614000B2
:1042E000486100200F49086080200D49486108613D
:1042F00080000861BE20FCF707FA4FF4807008497F
:104300000861400048610520064908608020044992
:104310004861086180000861401005E058000020F5
:10432000001001400C0C0140086140004861FE2073
:10433000FE4908608020FE494861086180000861EC
:1043400040100861400048610120F8490860802061
:10435000F749486108618000086140100861400029
:1043600048610020F14908608020F14948610861F6
:104370008000086140100861400048610020EB495E
:1043800008608020EA4948610861800008614010A7
:104390000861400048610020E44908608020E44949
:1043A0004861086180000861B820FCF7ADF94FF45E
:1043B0008070DF490861400048610320DB490860E4
:1043C0008020DB4948610861800008614010086175
:1043D000400048610120D54908608020D4494861E7
:1043E000086180000861BA20FCF78EF94FF48070F4
:1043F000CF490861400048610120CC490860802015
:10440000CB4948610861800008616420FDF777F8B6
:104410000020FDF7D7F80120C64908604FF6FF706D
:10442000FDF730FB08BD2DE9F84F07460D469046D5
:104430009946DDF828B0A8EB0700401C1FFA80FA67
:10444000A9EB0500401C80B20090002420E0281950
:1044500081B23846FCF773FBFCF76BFB002613E0D8
:104460004FF48070B24908614000486104FB0A6063
:104470003BF81000AD4908608020AD4948610861F3
:1044800080000861701C86B25645E9DB601C84B26E
:1044900000988442DBDBBDE8F88F2DE9FF4F84B044
:1044A00081468A460020039002900698A0EB0905F9
:1044B0000798A0EB0A06CDF80490CDF800A0002DD7
:1044C00001DD012705E00DB9002702E04FF0FF37BD
:1044D0006D42002E02DD4FF0010806E016B94FF0E4
:1044E000000802E04FF0FF387642B54201DD2C466D
:1044F00000E034464FF0000B21E0009A91B2019A9F
:1045000090B2FCF7E2FF03982844039002983044ED
:1045100002900398A04205DD0398001B03900198C8
:10452000384401900298A04205DD0298001B0290D9
:104530000098404400900BF101001FFA80FB601CC2
:104540008345DADD08B0BDE8F08FF0B504460D46CE
:1045500016461F462B46324629462046FFF79DFF4A
:104560003B46224629462046FFF797FF3B46324608
:1045700039462046FFF791FF3B46324629463046F2
:10458000FFF78BFFF0BD2DE9F04306460F4690463E
:10459000002445460320A0EB48093CE07A1B91B279
:1045A000321990B2FCF791FF3A1B91B2721990B296
:1045B000FCF78BFF3A1991B2721990B2FCF785FFA4
:1045C0007A1991B2321990B2FCF77FFF7A1991B241
:1045D000321B90B2FCF779FF3A1991B2721B90B27C
:1045E000FCF773FF7A1B91B2321B90B2FCF76DFFA0
:1045F0003A1B91B2721B90B2FCF767FF641CB9F1D1
:10460000000F03DAA000801D814404E0601B8000DD
:104610000A3081446D1EAC42C0DDBDE8F08310B5A8
:104620000246012000E050430B1EA1F10104E1B25B
:10463000F9D110BD2DE9FF4F81B0074691461E46C6
:104640000E9D4FF0000A002439E0301B401EC1B21D
:104650000A20FFF7E4FFB9FBF0F00A21B0FBF1F20A
:1046600001FB1208BAF1000F16D1701EA04213DD33
:10467000B8F1000F0ED10020AB4605EBDB714910FD
:1046800001FB0471009088B22B4620220299FCF7AE
:1046900084F912E04FF0010A0020AB4605EBDB7114
:1046A000491001FB0471009088B208F13001CAB2D0
:1046B0002B460299FCF771F900BF601CC4B2B442EA
:1046C000C3DB05B0BDE8F08F2DE9FF4F82B0064691
:1046D00092461F46DDE90F4800200190002555E075
:1046E000781B401EC1B20A20FFF799FFBAFBF0F019
:1046F0000A21B0FBF1F201FB1209019878BB781E88
:10470000A8422FDDB9F1000F2AD108F08000B0B126
:1047100008F00100A34604EBDB71491001FB0561C1
:10472000009088B223463022039905E00C0C01402A
:1047300000100140A8012242FCF72FF90EE008F01A
:104740000100A34604EBDB71491001FB05610090F9
:1047500088B2234620220399FCF71FF914E001E0F8
:104760000120019008F00100A34604EBDB71491021
:1047700001FB0561009088B209F13001CAB22346FD
:104780000399FCF70AF900BF681CC5B2BD42A7DB5C
:1047900006B0BDE8F08F000000B585B0012104200F
:1047A00000F070FC0121480700F079FC2020ADF8F2
:1047B000100000208DF8130004A90E4800F0A6F99F
:1047C00000200090019003906946102001F049FEFE
:1047D0000121102001F062FE05B000BD10B50446B5
:1047E000B4F5805F01DB40F6FF742146002001F044
:1047F000C3FE10BD0008014010B56FF0040000F0CA
:10480000F8FE2E4800682E49B0FBF1F02D490870E3
:104810000846007800EB4001C1EBC0104FF6FF7175
:1048200001EAC0002849088010BD0146254A1278D7
:104830004A434FF0E0235A6100229A611A461269F6
:1048400042F001021A6100BF4FF0E022106900F04F
:1048500001021AB100F48032002AF5D04FF0E022B4
:10486000126922F001024FF0E0231A6100229A61DE
:1048700070470146144A12884A434FF0E0235A61B8
:1048800000229A611A46126942F001021A6100BFC1
:104890004FF0E022106900F001021AB100F48032FA
:1048A000002AF5D04FF0E022126922F001024FF009
:1048B000E0231A6100229A61704700000000002086
:1048C00000127A00360000203800002000BF704738
:1048D00000BF4A4A128802F04002002AF9D0C2B250
:1048E000464B1B1D1A80704710B586B00446012147
:1048F00044F2040000F0C6FB4FF40070ADF8140061
:1049000003208DF8160018208DF8170005A93C48E3
:1049100000F0FCF84FF48060ADF8140004208DF82E
:10492000170005A9364800F0F1F825208DF80000A1
:1049300003208DF801008DF8020001208DF803009E
:10494000684600F00CFE01940020ADF80800ADF8B8
:104950000A00ADF80C00ADF810000C20ADF80E0008
:1049600001A9264800F035FC012240F225512348D8
:1049700000F0C7FC0121214800F0B7FC06B010BDD3
:1049800010B540F225511D4800F0A0FD10B31B48A2
:1049900000F01CFDC4B21B48008800F40040C8B9F8
:1049A0001848008800F4804060B10A2C03D0002031
:1049B0001449088020E01348008840F40040114961
:1049C000088019E00D2C06D10E48008840F4804084
:1049D0000C49088010E00B480088C0F30D000A491C
:1049E0000C5408480088401C064908800846008886
:1049F000C72801DD0020088010BD000000380140FC
:104A0000000801404000002066000020094880475F
:104A100009480047FEE7FEE7FEE7FEE7FEE7FEE7A0
:104A2000FEE7FEE7FEE7FEE704480549054A064BB8
:104A3000704700007F03000831010008900100204A
:104A400090070020900300209003002010B504463A
:104A5000CC48844208D10121042000F02DFB002124
:104A6000042000F029FB46E0C748844208D1012118
:104A7000082000F021FB0021082000F01DFB3AE097
:104A8000C248844208D10121102000F015FB00210A
:104A9000102000F011FB2EE0BD48844208D1012116
:104AA000202000F009FB0021202000F005FB22E07F
:104AB000B848844208D10121402000F0FDFA0021CD
:104AC000402000F0F9FA16E0B348844208D10121F1
:104AD000802000F0F1FA0021802000F0EDFA0AE0D9
:104AE000AE48844207D10121801500F0E5FA00218B
:104AF000A01500F0E1FA10BD10B50121084600F044
:104B0000DBFA0021012000F0D7FA10BD2DE9F041B9
:104B1000024600250026002000230024002791F8EB
:104B200003C00CF00F0591F803C00CF0100CBCF1A1
:104B3000000F03D091F802C04CEA050591F800C0BF
:104B4000BCF1000F31D0146800202BE04FF0010CB5
:104B50000CFA00F3B1F800C00CEA03069E4220D123
:104B600083004FF00F0C0CFA03F7BC4305FA03FC6B
:104B70004CEA040491F803C0BCF1280F06D14FF0B1
:104B8000010C0CFA00FCC2F814C00AE091F803C052
:104B9000BCF1480F05D14FF0010C0CFA00FCC2F833
:104BA00010C0401C0828D1D31460B1F800C0BCF17B
:104BB000FF0F34DD546800202EE000F1080C4FF0A8
:104BC000010808FA0CF3B1F800C00CEA03069E4293
:104BD00021D183004FF00F0C0CFA03F7BC4305FA08
:104BE00003FC4CEA040491F803C0BCF1280F05D182
:104BF00000F1080C08FA0CF8C2F8148091F803C010
:104C0000BCF1480F07D100F1080C4FF0010808FA79
:104C10000CF8C2F81080401C0828CED35460BDE8C0
:104C2000F0814FF6FF710180022181700421C17073
:104C300070470246002093680B400BB1012000E052
:104C4000002070470146886880B270470246002005
:104C5000D3680B400BB1012000E0002070470146F3
:104C6000C86880B2704701617047416170470AB1FE
:104C7000016100E041617047C16070474FF48032CC
:104C80000A4382618161826182698269704702465A
:104C90000020434B18684FF68073184040EA02101A
:104CA00008433F4B186070473E49C8617047F0B5F4
:104CB0000A46002300240021002500F00046B6F13A
:104CC000004F02D1364EF16901E0354E7168C0F3F4
:104CD000034583B200F44016B6F5401F08D121F019
:104CE00070612F4E766826F070662D4F7E6012E060
:104CF00000F48016B6F5801F06D1032606FA05F4E7
:104D0000A14341F0706106E0460D360103FA06F654
:104D1000B14341F0706122B1460D360103FA06F647
:104D2000314300F00046B6F1004F02D11C4EF16154
:104D300001E01B4E7160F0BD30B500228B071C0FE7
:104D40000F2303FA04F2164B08338C1053F8243067
:104D50009343134C08348D1044F8253023468C10AF
:104D600053F824308C07240F00FA04F423430C4C2E
:104D700008348D1044F8253030BD0A49DC31086014
:104D80007047000000080140000C01400010014085
:104D90000014014000180140001C014000200140A7
:104DA0000000014000002042DF48006840F00100A0
:104DB000DD49086008464068DC490840DA49486037
:104DC00008460068DA490840D74908600846006884
:104DD00020F4802008600846406820F4FE00486007
:104DE0004FF41F0088607047CF49096821F4803173
:104DF000CD4A11601146096821F480211160B0F597
:104E0000803F03D0B0F5802F0ED106E0C649096877
:104E100041F48031C44A116007E0C349096841F494
:104E2000A021C14A116000E000BF00BF704710B56B
:104E300001460022002300204A11012A02D1BA4C67
:104E4000236806E0022A02D1B74C236A01E0B64C7F
:104E5000636A01F01F02012494401C400CB1012040
:104E600000E0002010BD38B500200090002400258F
:104E700000BF3120FFF7DBFF05460098401C009083
:104E80000098B0F5A06F01D0002DF2D03120FFF7CF
:104E9000CEFF08B1012400E00024204638BD0146C1
:104EA0000020A14A106820F0F80040EAC10010601C
:104EB0007047A04908607047024600209A4B586826
:104EC00020F47C1042EA01031843974B5860704766
:104ED00098490866704701460020934A506820F0C0
:104EE00003000843506070478F48406800F00C0092
:104EF0007047014600208C4A506820F0F0000843BB
:104F00005060704701460020874A506820F4E060F6
:104F100008435060704701460020834A506820F4DF
:104F2000605040EAC1005060704729B17E4A527A11
:104F300002437D4B5A7204E07B4A527A82437A4B99
:104F40005A7270477B49D83108607047014600208B
:104F5000754A506820F44040084350607047002173
:104F6000714A20321170704A82F82010012802D054
:104F700004280AD104E001216B4A2032117005E0B7
:104F80000521694A2032117000E000BF00BF704760
:104F90006949086070476449096A0143624A1162BD
:104FA0007047654944390860704730B500210022D8
:104FB000002400235C4D6D6805F00C0121B104292B
:104FC00005D0082923D105E05C4D056022E05B4D4A
:104FD00005601FE0544D6D6805F47012524D6D6808
:104FE00005F48034022505EB92421CB9544D55431B
:104FF00005600BE04C4D6D6805F400351DB1504D5A
:105000005543056002E04D4D5543056002E04B4DB0
:10501000056000BF00BF444D6D6805F0F00109094F
:10502000484D6B5C0568DD4045603F4D6D6805F49B
:10503000E061090A434D6B5C4568DD4085603A4D8F
:105040006D6805F46051C90A3E4D6B5C4568DD40F2
:10505000C560354D6D6805F44041890B3A4D6B5C78
:10506000C568B5FBF3F5056130BD29B12E4A52691B
:1050700002432D4B5A6104E02B4A526982432A4B6A
:105080005A61704729B1284A92690243264B9A61B6
:1050900004E0254A92698243234B9A61704729B103
:1050A000214AD2690243204BDA6104E01E4AD269E8
:1050B00082431D4BDA61704729B11B4AD268024313
:1050C000194BDA6004E0184AD2688243164BDA6062
:1050D000704729B1144A12690243134B1A6104E064
:1050E000114A12698243104B1A61704712494039C4
:1050F000086070470F49C86470470B49C871704712
:105100000948406A40F0807007494862704701468C
:105110000020054A92680A400AB1012000E0002000
:105120007047014988727047001002400000FFF884
:10513000FFFFF6FE000042428004424200127A0065
:1051400000093D00420000205200002010B5044636
:10515000FB48844209D101218803FFF7ADFF0021FC
:105160004FF48040FFF7A8FF32E0F648844209D1AF
:1051700001214804FFF7ADFF00214FF40030FFF795
:10518000A8FF25E0F048844209D101218804FFF7F7
:10519000A0FF00214FF48020FFF79BFF18E0EB48B1
:1051A000844209D10121C804FFF793FF00214FF485
:1051B0000020FFF78EFF0BE0E548844208D1012173
:1051C0000805FFF786FF00214FF48010FFF781FFED
:1051D00010BD2DE9F04786B005460E460024A246D4
:1051E00000BFA1460027B08900B100BF2F462C8A1E
:1051F0004CF6FF700440F08804432C82AC894EF6D4
:10520000F3100440B088318908437189084304438E
:10521000AC81AC8A4FF6FF400440B0890443AC82B5
:1052200001A8FFF7C2FEC648874202D1DDF810A0F0
:1052300001E0DDF80CA0A88900F4004040B10AEBC1
:10524000CA0000EB0A1031684900B0FBF1F807E032
:105250000AEBCA0000EB0A1031688900B0FBF1F8D4
:105260006420B8FBF0F004012009642101FB1089DF
:10527000A88900F4004040B1322000EBC900B0FB27
:10528000F1F000F00700044308E0322000EB0910C1
:105290006421B0FBF1F000F00F0004432C8106B054
:1052A000BDE8F0874FF41651016000218180C18074
:1052B00001810C21418100218181704710B5024696
:1052C0000020108A4FF2FF0318400B884C882343BC
:1052D0008C882343CC8823431843108210BD0021BF
:1052E000018041808180C180704721B1828942F470
:1052F0000052828104E082894DF6FF731A40828158
:105300007047F0B50346002400260025002040F633
:105310006A17B94200D100BF1846C1F3421401F028
:105320001F06012707FA06F5012C01D10C3004E015
:10533000022C01D1103000E014301AB107682F435D
:10534000076002E00768AF430760F0BD1AB1838AC7
:105350000B43838202E0838A8B4383827047028AF5
:105360004FF6F0731A400282028A0A4302827047A3
:1053700082894FF2FF731A40828182890A438281B7
:10538000704721B1828942F00202828104E0828961
:105390004FF6FD731A4082817047028A4FF6DF7321
:1053A0001A400282028A0A430282704721B1028AAD
:1053B00042F48042028204E0028A4BF6FF731A40F4
:1053C00002827047C1F308028280704701468888D4
:1053D000C0F308007047818941F001018181704765
:1053E000028BD2B20283028B42EA0122028370470F
:1053F000028B02F47F420283028B0A4302837047CE
:1054000021B1828A42F02002828204E0828A4FF631
:10541000DF731A408282704721B1828A42F0100203
:10542000828204E0828A4FF6EF731A4082827047CC
:1054300021B1828A42F00802828204E0828A4FF619
:10544000F7731A408282704721B1828942F4004288
:10545000828103E08289C2F30E028281704721B10A
:10546000828A42F40062828204E0828A4FF2FF73F1
:105470001A4082827047828A4FF6FB731A408282FA
:10548000828A0A438282704721B1828A42F00202F4
:10549000828204E0828A4FF6FD731A40828270474E
:1054A00002460020B1F5007F00D100BF13880B40F9
:1054B0000BB1012000E00020704701F40072B2F54A
:1054C000007F00D100BFCA430280704770B502461A
:1054D000002400230025002040F66A16B14200D1C6
:1054E00000BFC1F3421501F01F03012606FA03F3C2
:1054F000012D02D19689334006E0022D02D1168A91
:10550000334001E0968A33400C12012606FA04F477
:105510001688344013B10CB1012000E0002070BDAA
:1055200010B50022002340F66A14A14200D100BF4A
:105530000A1201249440A3B2DC43048010BD000091
:10554000003801400044004000480040004C00404A
:105550000050004031490143314A1160704770B535
:10556000002100230F22C47804B32D4C246804F4D6
:10557000E064C4F5E064210AC1F10403CA40447840
:1055800004FA03F18478144021430901254C06787C
:10559000A155047804F01F050124AC4005786D1175
:1055A000AD0005F1E025C5F8004109E0047804F0FC
:1055B0001F050124AC401C4D0678761145F82640A5
:1055C00070BD1A4A0A400243154B1B1F1A607047F0
:1055D00039B1134A121D12680243114B1B1D1A6088
:1055E00006E00F4A121D126882430D4B1B1D1A6004
:1055F0007047042808D14FF0E021096941F0040107
:105600004FF0E022116107E04FF0E021096921F03D
:1056100004014FF0E0221161704700000000FA051C
:105620000CED00E000E400E080E100E080FFFF1FFF
:1056300010B50446FE48844208D10121C014FFF78A
:105640003BFD0021E014FFF737FDC4E0B4F1804FCB
:1056500008D101210846FFF73CFD00210120FFF79A
:1056600038FDB8E0F348844208D101210220FFF759
:1056700030FD00210220FFF72CFDACE0EE48844213
:1056800008D101210420FFF724FD00210420FFF7A9
:1056900020FDA0E0E948844208D101210820FFF75D
:1056A00018FD00210820FFF714FD94E0E44884422F
:1056B00008D101211020FFF70CFD00211020FFF779
:1056C00008FD88E0DF48844208D101212020FFF74F
:1056D00000FD00212020FFF7FCFC7CE0DA4884423A
:1056E00008D101214014FFF7E7FC00216014FFF707
:1056F000E3FC70E0D548844209D10121C804FFF7DA
:10570000DBFC00214FF40020FFF7D6FC63E0D0481B
:10571000844209D101210805FFF7CEFC00214FF496
:105720008010FFF7C9FC56E0CA48844209D1012124
:105730004805FFF7C1FC00214FF40010FFF7BCFC47
:1057400049E0C548844208D101214020FFF7C1FC4F
:1057500000214020FFF7BDFC3DE0C048844208D155
:1057600001218020FFF7B5FC00218020FFF7B1FC6C
:1057700031E0BB48844208D101218015FFF7A9FC24
:105780000021A015FFF7A5FC25E0B648844209D109
:1057900001210804FFF790FC00214FF48030FFF74F
:1057A0008BFC18E0B048844209D101214804FFF77E
:1057B00083FC00214FF40030FFF77EFC0BE0AB4888
:1057C000844208D101218804FFF776FC00214FF4C0
:1057D0008020FFF771FC10BD00220288944B984294
:1057E0000ED0994B98420BD0B0F1804F08D0914B1E
:1057F000984205D0904B984202D0904B984204D1E9
:105800004FF68F731A404B881A438D4B984207D03E
:105810008C4B984204D04FF6FF431A40CB881A4372
:1058200002808B8883850B880385814B98420BD03F
:10583000854B984208D08B4B984205D08A4B9842B2
:1058400002D08A4B984201D10B7A038601238382CE
:10585000704770B5002400220023058C4FF6FE76B9
:1058600035400584028C8388048B4FF68F752C405D
:10587000B51E2C400D882C43751E2A400D892A43E5
:105880004D882A436A4DA8420BD06F4DA84208D0DC
:10589000744DA84205D0744DA84202D0734DA84261
:1058A00013D14FF6F7752A404D892A434FF6FB7501
:1058B0002A408D882A434FF6FF652B404FF6FF554F
:1058C0002B408D892B43CD892B4383800483CD8846
:1058D0008586028470BD70B5002400220023058CEB
:1058E0004FF6EF7635400584028C8388048B48F6AA
:1058F000FF752C404FF6FF452C400D884FF6FF7684
:1059000006EA05252C434FF6DF752A400D8906EA85
:1059100005152A434D8806EA05152A43444DA84239
:1059200002D0494DA8421DD14FF67F752A404D89BE
:105930004FF6FF7606EA05152A434FF6BF752A4053
:105940008D8806EA05152A434FF6FF352B404FF2A6
:10595000FF752B408D8906EA85052B43CD8906EA24
:1059600085052B4383800483CD880587028470BD21
:1059700070B5002400220023058C4FF6FF663540E9
:105980000584028C8388848B4FF68F752C404FF6EC
:10599000FC752C400D882C434FF6FF552A400D898D
:1059A0004FF6FF7606EA05252A434D8806EA0525C7
:1059B0002A431F4DA84202D0234DA8421DD14FF2C9
:1059C000FF752A404D894FF6FF7606EA05252A43E2
:1059D0004FF6FF352A408D8806EA05252A434EF604
:1059E000FF752B404DF6FF752B408D8906EA051596
:1059F0002B43CD8906EA05152B4383808483CD880C
:105A00008587028470BD70B5002200230024058CB8
:105A10004EF6FF7635400584038C8488828B48F6E9
:105A2000FF752A404FF6FF452A400D8820E0000010
:105A3000002C01400004004000080040000C004021
:105A4000001000400014004000340140004C0140B0
:105A5000005001400054014000180040001C00406C
:105A60000020004000400140004401400048014047
:105A70004FF6FF7606EA05252A434DF6FF752B40C3
:105A80000D8906EA05352B434D8806EA05352B437B
:105A9000FA4DA84202D0FA4DA84208D14BF6FF7544
:105AA0002C408D894FF6FF7606EA85152C438480BD
:105AB0008283CD88A0F84050038470BD828B4FF262
:105AC000FF331A408283828B4FF6FF7303EA012370
:105AD0001A4382837047F0B50C4615460022002118
